{
  "contractName": "DID",
  "abi": [
    {
      "anonymous": false,
      "inputs": [
        {
          "indexed": true,
          "internalType": "address",
          "name": "previousOwner",
          "type": "address"
        },
        {
          "indexed": true,
          "internalType": "address",
          "name": "newOwner",
          "type": "address"
        }
      ],
      "name": "OwnershipTransferred",
      "type": "event"
    },
    {
      "inputs": [
        {
          "internalType": "uint256",
          "name": "",
          "type": "uint256"
        }
      ],
      "name": "characterList",
      "outputs": [
        {
          "internalType": "string",
          "name": "_name",
          "type": "string"
        },
        {
          "internalType": "string",
          "name": "_job",
          "type": "string"
        },
        {
          "internalType": "uint256",
          "name": "_level",
          "type": "uint256"
        }
      ],
      "stateMutability": "view",
      "type": "function",
      "constant": true
    },
    {
      "inputs": [],
      "name": "owner",
      "outputs": [
        {
          "internalType": "address",
          "name": "",
          "type": "address"
        }
      ],
      "stateMutability": "view",
      "type": "function",
      "constant": true
    },
    {
      "inputs": [],
      "name": "renounceOwnership",
      "outputs": [],
      "stateMutability": "nonpayable",
      "type": "function"
    },
    {
      "inputs": [
        {
          "internalType": "address",
          "name": "newOwner",
          "type": "address"
        }
      ],
      "name": "transferOwnership",
      "outputs": [],
      "stateMutability": "nonpayable",
      "type": "function"
    },
    {
      "inputs": [
        {
          "internalType": "uint256",
          "name": "",
          "type": "uint256"
        }
      ],
      "name": "userCodeList",
      "outputs": [
        {
          "internalType": "string",
          "name": "",
          "type": "string"
        }
      ],
      "stateMutability": "view",
      "type": "function",
      "constant": true
    },
    {
      "inputs": [
        {
          "internalType": "uint256",
          "name": "_num",
          "type": "uint256"
        },
        {
          "internalType": "string",
          "name": "_name",
          "type": "string"
        },
        {
          "internalType": "string",
          "name": "_job",
          "type": "string"
        },
        {
          "internalType": "uint256",
          "name": "_level",
          "type": "uint256"
        }
      ],
      "name": "registeredTest",
      "outputs": [],
      "stateMutability": "nonpayable",
      "type": "function"
    },
    {
      "inputs": [
        {
          "internalType": "uint256",
          "name": "_num",
          "type": "uint256"
        }
      ],
      "name": "showTest",
      "outputs": [
        {
          "components": [
            {
              "internalType": "string",
              "name": "_name",
              "type": "string"
            },
            {
              "internalType": "string",
              "name": "_job",
              "type": "string"
            },
            {
              "internalType": "uint256",
              "name": "_level",
              "type": "uint256"
            }
          ],
          "internalType": "struct IDID.character",
          "name": "",
          "type": "tuple"
        }
      ],
      "stateMutability": "view",
      "type": "function",
      "constant": true
    },
    {
      "inputs": [
        {
          "internalType": "string",
          "name": "_identifier",
          "type": "string"
        },
        {
          "components": [
            {
              "internalType": "string",
              "name": "userCode",
              "type": "string"
            },
            {
              "internalType": "string",
              "name": "userInfo",
              "type": "string"
            }
          ],
          "internalType": "struct IDID.UserData",
          "name": "_userData",
          "type": "tuple"
        }
      ],
      "name": "registerUser",
      "outputs": [],
      "stateMutability": "nonpayable",
      "type": "function"
    },
    {
      "inputs": [
        {
          "internalType": "string",
          "name": "_identifier",
          "type": "string"
        }
      ],
      "name": "withdrawUser",
      "outputs": [],
      "stateMutability": "nonpayable",
      "type": "function"
    },
    {
      "inputs": [
        {
          "internalType": "string",
          "name": "_identifier",
          "type": "string"
        }
      ],
      "name": "isRegistered",
      "outputs": [
        {
          "internalType": "bool",
          "name": "",
          "type": "bool"
        }
      ],
      "stateMutability": "view",
      "type": "function",
      "constant": true
    },
    {
      "inputs": [
        {
          "internalType": "string",
          "name": "_identifier",
          "type": "string"
        }
      ],
      "name": "getUserInfo",
      "outputs": [
        {
          "components": [
            {
              "internalType": "string",
              "name": "userCode",
              "type": "string"
            },
            {
              "internalType": "string",
              "name": "userInfo",
              "type": "string"
            }
          ],
          "internalType": "struct IDID.UserData",
          "name": "",
          "type": "tuple"
        }
      ],
      "stateMutability": "view",
      "type": "function",
      "constant": true
    },
    {
      "inputs": [],
      "name": "userCodeListLength",
      "outputs": [
        {
          "internalType": "uint256",
          "name": "",
          "type": "uint256"
        }
      ],
      "stateMutability": "view",
      "type": "function",
      "constant": true
    }
  ],
  "bytecode": "0x608060405234801561001057600080fd5b5061002d61002261003260201b60201c565b61003a60201b60201c565b6100fe565b600033905090565b60008060009054906101000a900473ffffffffffffffffffffffffffffffffffffffff169050816000806101000a81548173ffffffffffffffffffffffffffffffffffffffff021916908373ffffffffffffffffffffffffffffffffffffffff1602179055508173ffffffffffffffffffffffffffffffffffffffff168173ffffffffffffffffffffffffffffffffffffffff167f8be0079c531659141344cd1fd0a4f28419497f9722a3daafe3b4186f6b6457e060405160405180910390a35050565b611a278061010d6000396000f3fe608060405234801561001057600080fd5b50600436106100b35760003560e01c80638da5cb5b116100715780638da5cb5b1461018c578063b0dfe0f8146101aa578063c78bde4c146101da578063c822d7f0146101f6578063d51c1a3a14610226578063f2fde38b14610244576100b3565b8062ef7dbc146100b85780631af819a9146100ea57806320b4d14b1461010657806344ecae1a14610122578063715018a6146101525780637c9b7fdd1461015c575b600080fd5b6100d260048036038101906100cd9190610de1565b610260565b6040516100e193929190610eb6565b60405180910390f35b61010460048036038101906100ff91906110c2565b61039a565b005b610120600480360381019061011b919061113a565b6104b5565b005b61013c60048036038101906101379190610de1565b6106d3565b6040516101499190611183565b60405180910390f35b61015a61077f565b005b6101766004803603810190610171919061113a565b610793565b6040516101839190611233565b60405180910390f35b6101946108f7565b6040516101a19190611296565b60405180910390f35b6101c460048036038101906101bf9190610de1565b610920565b6040516101d19190611317565b60405180910390f35b6101f460048036038101906101ef9190611339565b610a7b565b005b610210600480360381019061020b919061113a565b610ae8565b60405161021d91906113f3565b60405180910390f35b61022e610b1d565b60405161023b919061140e565b60405180910390f35b61025e60048036038101906102599190611455565b610b32565b005b6001602052806000526040600020600091509050806000018054610283906114b1565b80601f01602080910402602001604051908101604052809291908181526020018280546102af906114b1565b80156102fc5780601f106102d1576101008083540402835291602001916102fc565b820191906000526020600020905b8154815290600101906020018083116102df57829003601f168201915b505050505090806001018054610311906114b1565b80601f016020809104026020016040519081016040528092919081815260200182805461033d906114b1565b801561038a5780601f1061035f5761010080835404028352916020019161038a565b820191906000526020600020905b81548152906001019060200180831161036d57829003601f168201915b5050505050908060020154905083565b6003826040516103aa919061151e565b908152602001604051809103902060009054906101000a900460ff16156103d057600080fd5b6103d8610cff565b816000015181600001819052508160200151816020018190525080600284604051610403919061151e565b9081526020016040518091039020600082015181600001908161042691906116e1565b50602082015181600101908161043c91906116e1565b509050506001600384604051610452919061151e565b908152602001604051809103902060006101000a81548160ff021916908315150217905550600482600001519080600181540180825580915050600190039060005260206000200160009091909190915090816104af91906116e1565b50505050565b6003816040516104c5919061151e565b908152602001604051809103902060009054906101000a900460ff166104ea57600080fd5b60006002826040516104fc919061151e565b90815260200160405180910390206000018054610518906114b1565b80601f0160208091040260200160405190810160405280929190818152602001828054610544906114b1565b80156105915780601f1061056657610100808354040283529160200191610591565b820191906000526020600020905b81548152906001019060200180831161057457829003601f168201915b5050505050905060005b60048054905081101561065657816040516020016105b9919061151e565b60405160208183030381529060405280519060200120600482815481106105e3576105e26117b3565b5b906000526020600020016040516020016105fd9190611865565b6040516020818303038152906040528051906020012003610643576004818154811061062c5761062b6117b3565b5b9060005260206000200160006106429190610d19565b5b808061064e906118ab565b91505061059b565b50600282604051610667919061151e565b9081526020016040518091039020600080820160006106869190610d19565b6001820160006106969190610d19565b505060006003836040516106aa919061151e565b908152602001604051809103902060006101000a81548160ff0219169083151502179055505050565b600481815481106106e357600080fd5b9060005260206000200160009150905080546106fe906114b1565b80601f016020809104026020016040519081016040528092919081815260200182805461072a906114b1565b80156107775780601f1061074c57610100808354040283529160200191610777565b820191906000526020600020905b81548152906001019060200180831161075a57829003601f168201915b505050505081565b610787610bb5565b6107916000610c33565b565b61079b610cff565b6107a3610bb5565b6002826040516107b3919061151e565b90815260200160405180910390206040518060400160405290816000820180546107dc906114b1565b80601f0160208091040260200160405190810160405280929190818152602001828054610808906114b1565b80156108555780601f1061082a57610100808354040283529160200191610855565b820191906000526020600020905b81548152906001019060200180831161083857829003601f168201915b5050505050815260200160018201805461086e906114b1565b80601f016020809104026020016040519081016040528092919081815260200182805461089a906114b1565b80156108e75780601f106108bc576101008083540402835291602001916108e7565b820191906000526020600020905b8154815290600101906020018083116108ca57829003601f168201915b5050505050815250509050919050565b60008060009054906101000a900473ffffffffffffffffffffffffffffffffffffffff16905090565b610928610d59565b60016000838152602001908152602001600020604051806060016040529081600082018054610956906114b1565b80601f0160208091040260200160405190810160405280929190818152602001828054610982906114b1565b80156109cf5780601f106109a4576101008083540402835291602001916109cf565b820191906000526020600020905b8154815290600101906020018083116109b257829003601f168201915b505050505081526020016001820180546109e8906114b1565b80601f0160208091040260200160405190810160405280929190818152602001828054610a14906114b1565b8015610a615780601f10610a3657610100808354040283529160200191610a61565b820191906000526020600020905b815481529060010190602001808311610a4457829003601f168201915b505050505081526020016002820154815250509050919050565b604051806060016040528084815260200183815260200182815250600160008681526020019081526020016000206000820151816000019081610abe91906116e1565b506020820151816001019081610ad491906116e1565b506040820151816002015590505050505050565b6000600382604051610afa919061151e565b908152602001604051809103902060009054906101000a900460ff169050919050565b6000610b27610bb5565b600480549050905090565b610b3a610bb5565b600073ffffffffffffffffffffffffffffffffffffffff168173ffffffffffffffffffffffffffffffffffffffff1603610ba9576040517f08c379a0000000000000000000000000000000000000000000000000000000008152600401610ba090611965565b60405180910390fd5b610bb281610c33565b50565b610bbd610cf7565b73ffffffffffffffffffffffffffffffffffffffff16610bdb6108f7565b73ffffffffffffffffffffffffffffffffffffffff1614610c31576040517f08c379a0000000000000000000000000000000000000000000000000000000008152600401610c28906119d1565b60405180910390fd5b565b60008060009054906101000a900473ffffffffffffffffffffffffffffffffffffffff169050816000806101000a81548173ffffffffffffffffffffffffffffffffffffffff021916908373ffffffffffffffffffffffffffffffffffffffff1602179055508173ffffffffffffffffffffffffffffffffffffffff168173ffffffffffffffffffffffffffffffffffffffff167f8be0079c531659141344cd1fd0a4f28419497f9722a3daafe3b4186f6b6457e060405160405180910390a35050565b600033905090565b604051806040016040528060608152602001606081525090565b508054610d25906114b1565b6000825580601f10610d375750610d56565b601f016020900490600052602060002090810190610d559190610d7a565b5b50565b60405180606001604052806060815260200160608152602001600081525090565b5b80821115610d93576000816000905550600101610d7b565b5090565b6000604051905090565b600080fd5b600080fd5b6000819050919050565b610dbe81610dab565b8114610dc957600080fd5b50565b600081359050610ddb81610db5565b92915050565b600060208284031215610df757610df6610da1565b5b6000610e0584828501610dcc565b91505092915050565b600081519050919050565b600082825260208201905092915050565b60005b83811015610e48578082015181840152602081019050610e2d565b83811115610e57576000848401525b50505050565b6000601f19601f8301169050919050565b6000610e7982610e0e565b610e838185610e19565b9350610e93818560208601610e2a565b610e9c81610e5d565b840191505092915050565b610eb081610dab565b82525050565b60006060820190508181036000830152610ed08186610e6e565b90508181036020830152610ee48185610e6e565b9050610ef36040830184610ea7565b949350505050565b600080fd5b600080fd5b7f4e487b7100000000000000000000000000000000000000000000000000000000600052604160045260246000fd5b610f3d82610e5d565b810181811067ffffffffffffffff82111715610f5c57610f5b610f05565b5b80604052505050565b6000610f6f610d97565b9050610f7b8282610f34565b919050565b600067ffffffffffffffff821115610f9b57610f9a610f05565b5b610fa482610e5d565b9050602081019050919050565b82818337600083830152505050565b6000610fd3610fce84610f80565b610f65565b905082815260208101848484011115610fef57610fee610f00565b5b610ffa848285610fb1565b509392505050565b600082601f83011261101757611016610efb565b5b8135611027848260208601610fc0565b91505092915050565b600080fd5b600080fd5b6000604082840312156110505761104f611030565b5b61105a6040610f65565b9050600082013567ffffffffffffffff81111561107a57611079611035565b5b61108684828501611002565b600083015250602082013567ffffffffffffffff8111156110aa576110a9611035565b5b6110b684828501611002565b60208301525092915050565b600080604083850312156110d9576110d8610da1565b5b600083013567ffffffffffffffff8111156110f7576110f6610da6565b5b61110385828601611002565b925050602083013567ffffffffffffffff81111561112457611123610da6565b5b6111308582860161103a565b9150509250929050565b6000602082840312156111505761114f610da1565b5b600082013567ffffffffffffffff81111561116e5761116d610da6565b5b61117a84828501611002565b91505092915050565b6000602082019050818103600083015261119d8184610e6e565b905092915050565b600082825260208201905092915050565b60006111c182610e0e565b6111cb81856111a5565b93506111db818560208601610e2a565b6111e481610e5d565b840191505092915050565b6000604083016000830151848203600086015261120c82826111b6565b9150506020830151848203602086015261122682826111b6565b9150508091505092915050565b6000602082019050818103600083015261124d81846111ef565b905092915050565b600073ffffffffffffffffffffffffffffffffffffffff82169050919050565b600061128082611255565b9050919050565b61129081611275565b82525050565b60006020820190506112ab6000830184611287565b92915050565b6112ba81610dab565b82525050565b600060608301600083015184820360008601526112dd82826111b6565b915050602083015184820360208601526112f782826111b6565b915050604083015161130c60408601826112b1565b508091505092915050565b6000602082019050818103600083015261133181846112c0565b905092915050565b6000806000806080858703121561135357611352610da1565b5b600061136187828801610dcc565b945050602085013567ffffffffffffffff81111561138257611381610da6565b5b61138e87828801611002565b935050604085013567ffffffffffffffff8111156113af576113ae610da6565b5b6113bb87828801611002565b92505060606113cc87828801610dcc565b91505092959194509250565b60008115159050919050565b6113ed816113d8565b82525050565b600060208201905061140860008301846113e4565b92915050565b60006020820190506114236000830184610ea7565b92915050565b61143281611275565b811461143d57600080fd5b50565b60008135905061144f81611429565b92915050565b60006020828403121561146b5761146a610da1565b5b600061147984828501611440565b91505092915050565b7f4e487b7100000000000000000000000000000000000000000000000000000000600052602260045260246000fd5b600060028204905060018216806114c957607f821691505b6020821081036114dc576114db611482565b5b50919050565b600081905092915050565b60006114f882610e0e565b61150281856114e2565b9350611512818560208601610e2a565b80840191505092915050565b600061152a82846114ed565b915081905092915050565b60008190508160005260206000209050919050565b60006020601f8301049050919050565b600082821b905092915050565b6000600883026115977fffffffffffffffffffffffffffffffffffffffffffffffffffffffffffffffff8261155a565b6115a1868361155a565b95508019841693508086168417925050509392505050565b6000819050919050565b60006115de6115d96115d484610dab565b6115b9565b610dab565b9050919050565b6000819050919050565b6115f8836115c3565b61160c611604826115e5565b848454611567565b825550505050565b600090565b611621611614565b61162c8184846115ef565b505050565b5b8181101561165057611645600082611619565b600181019050611632565b5050565b601f8211156116955761166681611535565b61166f8461154a565b8101602085101561167e578190505b61169261168a8561154a565b830182611631565b50505b505050565b600082821c905092915050565b60006116b86000198460080261169a565b1980831691505092915050565b60006116d183836116a7565b9150826002028217905092915050565b6116ea82610e0e565b67ffffffffffffffff81111561170357611702610f05565b5b61170d82546114b1565b611718828285611654565b600060209050601f83116001811461174b5760008415611739578287015190505b61174385826116c5565b8655506117ab565b601f19841661175986611535565b60005b828110156117815784890151825560018201915060208501945060208101905061175c565b8683101561179e578489015161179a601f8916826116a7565b8355505b6001600288020188555050505b505050505050565b7f4e487b7100000000000000000000000000000000000000000000000000000000600052603260045260246000fd5b600081546117ef816114b1565b6117f981866114e2565b9450600182166000811461181457600181146118295761185c565b60ff198316865281151582028601935061185c565b61183285611535565b60005b8381101561185457815481890152600182019150602081019050611835565b838801955050505b50505092915050565b600061187182846117e2565b915081905092915050565b7f4e487b7100000000000000000000000000000000000000000000000000000000600052601160045260246000fd5b60006118b682610dab565b91507fffffffffffffffffffffffffffffffffffffffffffffffffffffffffffffffff82036118e8576118e761187c565b5b600182019050919050565b7f4f776e61626c653a206e6577206f776e657220697320746865207a65726f206160008201527f6464726573730000000000000000000000000000000000000000000000000000602082015250565b600061194f602683610e19565b915061195a826118f3565b604082019050919050565b6000602082019050818103600083015261197e81611942565b9050919050565b7f4f776e61626c653a2063616c6c6572206973206e6f7420746865206f776e6572600082015250565b60006119bb602083610e19565b91506119c682611985565b602082019050919050565b600060208201905081810360008301526119ea816119ae565b905091905056fea2646970667358221220d8df677e05cc450dc1d1210d65e5740208e733e51d1953f993a2d295622be5cb64736f6c634300080f0033",
  "immutableReferences": {},
  "source": "// SPDX-License-Identifier: MIT\npragma solidity ^0.8.15;\n\nimport \"../node_modules/@openzeppelin/contracts/access/Ownable.sol\";\nimport \"./IDID.sol\";\n\n\n\ncontract DID is Ownable, IDID {\n\n    // virtual  .  .\n    // override  .  .\n\n    //  \n    // public - contract /    .\n    // private - contract    .\n    // internal - contract  or  contract  \n    // external - contract  ,  \n\n    // view, pure (    ) + feat.payable\n    //   (?)  storage  .\n    // user, isRegisteredUser, userCodeList  storage state .\n    //   storage state   view  .\n    //    storage state   view  .\n    // pure storage state    .\n\n    \n\n    mapping(uint => character) public characterList;\n\n    function registeredTest(uint _num, string memory _name, string memory _job, uint _level) public override {\n        characterList[_num] = character(_name, _job, _level);\n    }\n\n    function showTest(uint _num) view public override returns(character memory){\n        return characterList[_num];\n    }\n\n    mapping(string => UserData) private user;\n    mapping(string => bool) private isRegisteredUser;\n\n    string[] public userCodeList;\n\n    function registerUser(string memory _identifier, UserData memory _userData) public override {\n        require(!isRegisteredUser[_identifier]);\n        \n        UserData memory userData;\n\n        userData.userCode = _userData.userCode;\n        userData.userInfo = _userData.userInfo;\n\n        user[_identifier] = userData;\n        isRegisteredUser[_identifier] = true;\n        userCodeList.push(_userData.userCode);\n    }\n\n    function withdrawUser(string memory _identifier) public override {\n        require(isRegisteredUser[_identifier]);\n\n        string memory userCode = user[_identifier].userCode;\n        for(uint i = 0; i < userCodeList.length; i++){\n            if(keccak256(abi.encodePacked(userCodeList[i])) == keccak256(abi.encodePacked(userCode))){\n                delete userCodeList[i];\n            }\n        }\n\n        delete user[_identifier];\n        isRegisteredUser[_identifier] = false;\n    }\n\n    function isRegistered(string memory _identifier) public override view returns(bool) {\n        return isRegisteredUser[_identifier];\n    }\n\n    function getUserInfo(string memory _identifier) public override view onlyOwner returns(UserData memory){\n        return user[_identifier];\n    }\n\n    function userCodeListLength() public override view onlyOwner returns(uint256){\n        return userCodeList.length;\n    }\n\n}",
  "sourcePath": "/home/seungju/practice/truffle/contracts/DID.sol",
  "compiler": {
    "name": "solc",
    "version": "0.8.15+commit.e14f2714.Emscripten.clang"
  },
  "schemaVersion": "3.4.10",
  "updatedAt": "2022-11-15T02:46:58.574Z",
  "networkType": "ethereum",
  "devdoc": {
    "kind": "dev",
    "methods": {
      "owner()": {
        "details": "Returns the address of the current owner."
      },
      "renounceOwnership()": {
        "details": "Leaves the contract without owner. It will not be possible to call `onlyOwner` functions anymore. Can only be called by the current owner. NOTE: Renouncing ownership will leave the contract without an owner, thereby removing any functionality that is only available to the owner."
      },
      "transferOwnership(address)": {
        "details": "Transfers ownership of the contract to a new account (`newOwner`). Can only be called by the current owner."
      }
    },
    "version": 1
  },
  "userdoc": {
    "kind": "user",
    "methods": {},
    "version": 1
  }
}